:02000004080AE8
:1000000000000A0874850A080000060006000501C1
:080010000402350800000000A5
:04001800D86D0A088D
:1000200009480A4908B5884205D0094A824202D0E7
:10003000121A04F0DFFF0748074A0021121A04F0E1
:10004000E7FF064808BD00BF0000002074830A08CF
:10005000D8010020D8010020F4070020F407002078
:1000600070B503F037FD0025054E064CA41BA4080F
:10007000A54200D170BD56F8043B98470135F7E71B
:100080004C830A086C830A0800F0BCBC08B500F079
:10009000E7FDBDE8084003F0DFBC02F0CDBE02F092
:1000A000CBBE02F0D1BE02F0CFBE000000210C207A
:1000B00008B5024A02F00CFEFEE700BF8D290A08CF
:1000C0000078B0FA80F04009704701230370704750
:1000D00070B5044608460E4604F0D0FF6368A26877
:1000E000451CE918914208D820682A463146184430
:1000F00004F080FF60682844606070BD38B50B4B29
:100100008469054603607CB16368013B63605BB949
:10011000236820469B689847A368013BA3601BB9EE
:1001200023682046DB689847284638BD647E0A0865
:100130000EB403B503AB53F8042B0021019303F075
:10014000C5FB02B05DF804EB03B07047F0B502F1F7
:1001500008038BB023F0070302AFADEB030D02AC35
:1001600005462046164604F045FF0023A35503F03C
:10017000C5FD294603F0B5FA2146384603F038FAA2
:10018000294607F1100003F033FA304907F1100057
:1001900003F052FA064607F1100003F0DFF9EEB162
:1001A000384603F05BFA04F04DFB294EC6E9000126
:1001B00003F0A4FD22462749FFF7BAFF03F09EFD96
:1001C00003F083FA03F09AFD02230093D6E900239B
:1001D00003F06EFB4FF47A7003F0E8FB03F08EFD42
:1001E00003F073FA294607F1100003F001FA1A49E7
:1001F00007F1100003F020FA054607F1100003F0A4
:10020000ADF9EDB1384603F029FA04F01BFB134DAC
:10021000C5E9000103F072FD22460E49FFF788FF91
:1002200003F06CFD03F051FA03F068FD0223009324
:10023000D5E9002303F03CFB4FF47A7003F0B6FBE2
:10024000384603F08BF92437BD46F0BDEC6D0A0843
:1002500010030020F86D0A08FB6D0A08080300204F
:1002600008B502F09BFB034B1860BDE8084002F0A4
:10027000CBBD00BFC00700200346006820B15B680B
:10028000984201D204F09FBE0020704738B505683F
:10029000044645B143689D4205D2284604F0EEFE6F
:1002A000013005442560204638BD000038B50446BD
:1002B00025680B46D4E90101044A091A284402F0D2
:1002C000D3FD636801300344636038BD066E0A08DD
:1002D00038B5044625680B46D4E90101044A091AD9
:1002E000284402F0C1FD636801300344636038BDF7
:1002F000096E0A08D3B516461F46D0E901310446F7
:100300000068C91ACDE90067044A184402F0ACFD40
:10031000636801300344636002B0D0BD0D6E0A080B
:1003200008B500234377006803F01AF8BDE80840D9
:1003300002F0CEBA2DE9F04301EB02098FB0494536
:1003400080460D461646CDE9051980F0928005A835
:100350000F88FFF79BFF0368994540F28A8005A844
:10036000FFF78AFF47F276239F42C4B200F0A980CC
:1003700027D847F261239F427ED047F264239F42F1
:1003800042D046F670539F4228D1634E634FDFF848
:10039000A081059B99456CD905A8FFF76DFFC4B2F4
:1003A00005A8FFF773FF059D3146284604F05CFE63
:1003B0000146E0B9204603F0F1FE05A8FFF766FF0D
:1003C000E7E747F264739F423FD047F276739F425C
:1003D00000F0878047F261739F425FD000230222C2
:1003E000CDE9013300921946B8F81A2029E03946C0
:1003F000284604F039FE28B14146284604F034FE70
:100400000028DAD10121D5E70AAB07930025102394
:10041000434907A8CDE90853FFF75AFE07A821462C
:10042000FFF744FF204603F0E3FE014607A8FFF76D
:100430004FFF2A461421089BCDE90155013B00934B
:10044000079B404600F008FB13E005A8FFF71EFFDE
:10045000036899450DD9A4B20121204603F09EFE00
:1004600005A8FFF709FF011E18BF0121204603F070
:10047000A6FE0FB0BDE8F0830AAB0793002510235A
:1004800007A82849CDE90853FFF722FE07A821460F
:10049000FFF70CFF204603F0BEFEC6E705A8FFF7F6
:1004A000F5FE03689945E4D9A4B20121204603F082
:1004B00075FE05A8FFF7E0FE0146204603F0C2FEE8
:1004C000D7E720468DF8284002F004FA03460AA830
:1004D00023B1154A934201D09847CAE702F0F6F9D2
:1004E000C7E705A8FFF7D2FE059B20465D1B751BDD
:1004F000CDE90A350C958DF81C4002F0F5F903465C
:100500000AA907A823B1094A934201D09847B0E746
:1005100002F0DDF9ADE700BF136E0A08166E0A0897
:100520001E6E0A08216E0A08CD280A08CF280A087C
:100530001A6E0A082DE9F0418CB004AF044605227A
:100540000068391D03F008FAB8B3052804D000206C
:100550002037BD46BDE8F081B7F80520130A43EA0D
:100560000223B7F8072099B2A7F80530130A43EA27
:1005700002231FFA83F8A7F807300029E7D03B7958
:1005800023BB02F0A1F90246E060607FB7F80730B4
:10059000C0B9B7F80510012914D1092B0FD0C82B09
:1005A00001D0042BD4D1012520466261657700F08B
:1005B00001FBFFF755FE02F08BF90120C8E703238A
:1005C0006377C5E7581F18BF0120C1E7B8F5806FF2
:1005D00003D92046FFF7A4FEEFE708F1080323F054
:1005E00007036E46ADEB030D04AD42462946206875
:1005F00003F0B2F980454FF000007FD1B7F8073023
:10060000E85402F061F93B79E060142B00F0A68019
:1006100048D80F2B00F0A28007D8022B48D0062B19
:1006200051D02046FFF77CFE58E0112BF9D1002372
:100630003B70B7F807302B449D42C7E903534DD2B6
:1006400007F10C00D5F80080FFF720FEFB68B7F833
:1006500007105D1B4D1BC7E905357B68FD61C3F3C2
:100660000F236383644B984500F0BF8000F28C80B9
:100670006FF40072A3F57F231344984500F09D802A
:1006800079D8A3F50033063B984500F09C8003F52C
:100690000033033398456BD1384607F1140102F05B
:1006A00016F965E0292B1BD0372B17D01D2BB8D19D
:1006B000637F43B901232046637700F07BFAFFF79D
:1006C000CFFD02F005F90023C821B7F80520204628
:1006D0000091CDE90133194600F0BEF901200DE08B
:1006E000A3681BB9402002F0A7FBA060B7F8078001
:1006F000A8444545C7E9055802D30020B54627E779
:10070000294600254022A06804F0D2FCA36807F126
:10071000140083F83F50FFF7B9FD036843451BD22F
:10072000786920B1BB69984214D204F050FC85B2BC
:10073000206802F015FE2368A2681D875A63002313
:10074000637702F0C1F8A0F59C500838C4E90300B3
:100750006061C3E72846EAE75025E9E77B68294658
:10076000C3F30F232046B7F807206383FFF7E2FDAA
:1007700000236383B2E7214B9845F9D1384607F14E
:10078000140102F0A4F8F3E71D4B984521D003F1C2
:100790009F6303F5003303F5807398451FD003F181
:1007A0006E4303F5302303F586739845E0D1384650
:1007B00007F1140102F08BF8DAE7384607F114016B
:1007C00002F085F8D4E7384607F1140102F07FF80B
:1007D000CEE7384607F1140102F079F8C8E7384649
:1007E00007F1140102F073F8C2E7384607F114016B
:1007F00002F06DF8BCE700BF7666730064626700C4
:1008000061636F6E2DE9F04104468AB00D46FFF733
:1008100027FD637F022B00F0A780237F628B0133CB
:10082000DBB223770AB1012516E0022BFBD8206842
:1008300002F0EDFDB8B125B9206802F057FD00289F
:1008400011DD2046FFF776FE05460028F4D120682A
:1008500002F086FD02F03CF8237F013B2377284617
:100860000AB0BDE8F08102F02FF80646206802F0D9
:10087000CEFD677F0546012F29D120B9204666614C
:10088000FFF74EFDE8E74FF21862E368F31A934270
:1008900004D92046FFF744FD0025DDE74AF6C8727B
:1008A000934203D82369F31A9342BCD941F2707280
:1008B0006369F31A9342B6D9002306211A462046EB
:1008C000CDE90133009300F0C7F86661ABE7002F74
:1008D000A9D16269B21A40B141F270739A42A2D9A9
:1008E000206802F03DFD6777D6E741F288339A42EF
:1008F00099D9206802F034FDD4F800C0DCF834E067
:10090000BCF83880BEF1000F0BD02B464246714632
:10091000604602F0EDFD431E5D425D418DB96661AA
:100920009AE7124B05AD0CF1200704930FCF0FC5CA
:100930003B6842462B706046734604A902F066FC91
:10094000E9E7012667682683384604F097FB002311
:100950000090CDE9013332463B461D21204600F090
:100960007BF82369636177E7002578E7E07E0A0872
:100970002DE9F041154604460F468CB040F6B830DC
:1009800001AE0435984601F09DFF0FCD0FC62B68D0
:100990006760337001F098FF4FF0000CA0F59C5099
:1009A000083807AE01AFC4E9030060610FCF0FC67E
:1009B00025683B68C5F834C03370A5F8388007AFA8
:1009C00020350FCF44F24F670FC5336866462B7052
:1009D000206802F0C5FC667701F076FF0546637F6C
:1009E000012B0CD001F070FF401BB84204D800214D
:1009F0002046FFF707FFF2E7637F012BE8D10CB039
:100A0000BDE8F08110B5114C88B0204600F040FEE2
:100A1000204601F04FFC204601F0BAFE03F06EF9CB
:100A20004FF4165103F050F9A223AC220093A721F2
:100A3000EA2302A803F0D8F842F2823304490548B9
:100A400002AAFFF795FF08B010BD00BF9802002072
:100A5000246E0A08DC0100202DE9F04F83B0044623
:100A600000AF0068884616469946EB463D6B02F09B
:100A7000CEFC00287FD0B8F11D0F04D84C4B23FAD0
:100A800008F3DB0702D4637F012B74D146B9668B70
:100A900036B9238B01339BB2002B71D02383268B75
:100AA000A8F10C03082B16D8D4E90323934238BFCE
:100AB000134603F1420A01F007FFAAEB00000028E9
:100AC00060DB00212046FFF79DFE01F0FDFEAAEB52
:100AD00000000028F5DAB9F1000F5AD06B1D7A6BCF
:100AE00076BA002ABA6B08BF002203EB020A0AF1A9
:100AF000070323F00703ADEB030DBB6BC7F804D06E
:100B0000EA18C2F3072343EA02238DF80080ADF808
:100B10000160ADF80330B9F1000F3CD0002D3AD0A0
:100B20002A4649460DF1050004F064FA681D7B6B06
:100B30003BB1BB6B2BB11A467B68796B184404F050
:100B400059FA002555452AD2AAEB05027B68B2F571
:100B5000806F28BF4FF480622068591902F08BFA29
:100B60000646002001F0AEFEBEB9206802F0F8FB98
:100B7000667701F0ADFEDD460C37BD46BDE8F08F6F
:100B800001238BE7217F0029A5D12046FFF73AFEFC
:100B9000A1E70523A3E70520C9E73544D2E703D041
:100BA0002046FFF7BDFBE6E701F08EFE2061E2E79D
:100BB0004500002000B595B004AB002201935023FE
:100BC000112100930292034BFFF746FF15B05DF829
:100BD00004FB00BF7C6E0A08F0B5ADF2244D08ABF3
:100BE0000F461646059300224FF480631B490446C6
:100BF00005A8CDE90623DDF84854FFF769FA394620
:100C000005A8FFF753FB314605A8FFF74FFB0DF58D
:100C10008763D3E9002305A8FFF76CFB0DF5886314
:100C200005A8D3E90023FFF765FB95B9DDE90523A6
:100C3000591C0691D5540022069B1421013B0093B8
:100C40002046CDE90122059BFFF706FF0DF2244D5A
:100C5000F0BD294605A8FFF73BFAECE7456E0A0808
:100C60002DE9F0412F488AB000F0EEFE00284ED06A
:100C70002C4801F031F82C4C2C492A4801F06EF92F
:100C80002B49284801F06AF9204600F02AFD00218E
:100C90002848FFF7B7FD204601F00CFB2046012154
:100CA00000F0A7FC00254FF001134FF00208224F7F
:100CB00022492046C4E90453214E02F0FFFCD7E943
:100CC00000232046CDF8008002F0F2FD1D492046A9
:100CD00002F0F4FCD6E900232046CDF8008002F0B3
:100CE000E7FD204601F054FD174B12480493D7E965
:100CF0000023CDE90223D6E90023CDE90023134BDD
:100D00002A461978FFF768FF0AB0BDE8F08106A807
:100D100002F082F80699034800F086FF06A802F068
:100D20001DFCA8E73802002098020020FB6D0A088D
:100D3000EC6D0A08DC01002010030020486E0A0850
:100D400008030020546E0A085F6E0A08180300208A
:100D500073B500241C4D0021012001F0D9FF1B4E6A
:100D6000284602F0ADFB05F11C0002F007FF3246F9
:100D70006C632C872846164903F0E2FA154B40F2C3
:100D80005B72C3E90054144DC3E90244C3E904444F
:100D90009C619C832846114B00941149114C00F032
:100DA0004DFD32462846104903F0CAFA0721204675
:100DB00000F040FC324620460C4903F0C1FA012203
:100DC0000B4B1A7002B070BDFC010020D80100204E
:100DD000FD000A08DC010020380200204D010A084D
:100DE000656E0A0898020020651F0A0801160A08A5
:100DF00018030020704710B50446102103F0A5FA2F
:100E0000204610BD10B50446806808B101F0F6FD1B
:100E1000204610BD73B5044622790846A36832B156
:100E2000A3B90B4902B0BDE8704002F047BC094AC3
:100E3000267B094D0949647B012E18BF2946CDE95F
:100E400000140749FFF774F902B070BD054AEFE7D7
:100E5000DF6E0A08536E0A08DB6E0A08D76E0A08AE
:100E6000F56E0A08CE6E0A082DE9F04F1F4685B0D0
:100E7000BDF93880A7EB010AA8EB0209B9F1000F10
:100E8000B8BFC9F10009BAF1000FB8BFCAF1000A32
:100E9000D14583460C461646BDF83C3004DD3A4643
:100EA000344647460E469046BC4205DD324646462D
:100EB000904622463C4617463A1B91B20091A8EB59
:100EC00006010029B8BF4942C2F3C035019111B2F1
:100ED0004645B4BF01224FF0FF320D446D1002921F
:100EE000BC421CDCDBF80020D145D2F81880C7BF1B
:100EF000314622463246214603935846C047019A5E
:100F0000039BAD1AA9B22DB2002D05DA029A164440
:100F1000009A36B255182DB2013424B2E0E705B07C
:100F2000BDE8F08F704710B404682469A44610BC73
:100F3000604730B4BDF8085004680295A46BA4461D
:100F400030BC604730B4BDF8085004680295E46BCB
:100F5000A44630BC604770B4BDF90C50BDF81060B9
:100F60000468CDE90356246CA44670BC60472DE9A3
:100F7000F3411C46164605460F460368013CBDF882
:100F800020805B693444984724B22B68CDF80480F4
:100F9000009428469C6A32463B463946A04728467C
:100FA0002B68DB6A02B0BDE8F04118472DE9F34138
:100FB000174604461D460E460368BDF820805B694F
:100FC0009847CDE9007822686B1E33442046956A25
:100FD00031463A461BB2A84720462368DB6A02B076
:100FE000BDE8F04118472DE9F3471E4603680C465B
:100FF0005B6905461746BDF92880BDF82C909847D7
:101000002644B4422B680BDACDF800902146D3F881
:1010100020A03A46434628460134D04724B2F0E7A0
:101020002846DB6A02B0BDE8F047184713B50191C6
:10103000B0F90E1002680091146C0022B0F90C3067
:101040001146A04702B010BD2DE9F34704460F46F4
:1010500016461D460368BDF82C805B69BDF92890D3
:1010600098472368CDF80080324639462046D3F8A9
:1010700024A02B46D047236809F1FF32CDF8008029
:10108000324439462046D3F824A012B22B46D0472A
:101090002368CDF80080324639462046D3F820A098
:1010A0004B46D047013D2368E919CDF80080204622
:1010B0001D6A32464B4609B2A84720462368DB6AC0
:1010C00002B0BDE8F047184770472DE9F743994251
:1010D000164680460D461C46BDF92870BDF82C907A
:1010E000026812D1BE42C2BF33463E461F46CDF80B
:1010F00028907B1C946B9B1B324629464046A44695
:101100001BB203B0BDE8F0436047BE420AD199422A
:10111000C2BF0B4625461C46CDF82890631C5B1BBE
:10112000D46BE9E753699847CDE90079D8F80030E6
:1011300040469F6A324623462946B8474046D8F87B
:101140000030DB6A03B0BDE8F043184701F0030349
:10115000B0F90A208376B0F90830C90759BF8381F6
:10116000C2818281C381704730B5018100248181B1
:101170004FF0FF31054D4281C281054A4460C0E90C
:101180000512056004610477046230BD1C740A080E
:10119000010100012DE9F04F0026354689B0049386
:1011A000BDF94C30BDF9488005930368CDE90212C2
:1011B0005B690446BDF850A0984718F1070348BF83
:1011C00008F10E034FEAE30B0196039B019A059980
:1011D0009A18BDF9043012B2994227DD4FF0000988
:1011E000049B334406930FFA89F398451FFA89F15B
:1011F00017DD480705BF0698DB106D00C55C18BFFA
:10120000EDB22B060AD5029B0792194423682046AB
:101210009B6909B21F465346B847079A09F101096D
:10122000E1E7019B5E4401330193CEE7204623684A
:10123000DB6A09B0BDE8F04F184700002DE9F04F18
:1012400091B017461E46026ABDF868308246BDF866
:101250006C809DF870509DF8744005910293002AAF
:1012600040F0B980B0F90C308B4240F33C81B0F9CA
:101270000E30BB4240F33781062303FB0513002BDE
:1012800040F3318107EBC403002B40F32C81037F33
:101290001BB9AF2E84BF0136F6B2DAF800305046E3
:1012A0005B69984705230993002304938F4B06EB52
:1012B000860633440C93BBB206930C9B049ABDF88C
:1012C00010609B5C4FF000090793ABB20B93BDF825
:1012D0001430039305FB06331BB2089308230A93CB
:1012E000039B1E4436B2079ADAF80030D2074DD578
:1012F000012D06991FFA89F23BD1012C39D1D3F87F
:1013000018B0029B0A443146504612B2D847079B98
:1013100009F101095B0807930A9B4FFA89F9013B20
:1013200013F0FF030A93DED1049B01335BB20493F5
:10133000099B013B13F0FF030993BED1029B434578
:101340000FD0012DDAF8003034D1012C32D10399BD
:10135000CDF8008005311C6A3A460823504609B290
:10136000A0475046DAF80030DB6A11B0BDE8F04F14
:10137000184704FB0212029901910094D3F81CB0A3
:1013800050462B46089912B2D847C0E7029A424508
:10139000BDD0012D06991FFA89F206D1012C04D186
:1013A000D3F818B00A444346ADE704FB0212CDF867
:1013B0000480E2E70B9AE40002EB8201039ACDF885
:1013C00004800A4411460094DC693A462B46504694
:1013D00009B2A047C5E7137A5168F61A1268F6B247
:1013E0000E9231F8362001EBC60304929A78012D53
:1013F0000892DA7893F906B00C9293F905200992D5
:1014000001D8012C53D9BDF9243007930FFA8BF37F
:1014100006934FF00008C146DAF8003050465B6989
:101420009847BBB20A935B44CDF80C800F930C9B9A
:10143000039A9A4295D2069B002713440A9A03996D
:1014400003FB04231BB20B9343460F9A02EB010BE1
:101450000FFA8BFB089A97423CD25A1CD2B25B0718
:101460000D9207D1049B04990E9A01339BB212F896
:101470000190049319F0800F11D0012DDAF800309B
:10148000BDF8141017D1012C15D1099A9B6911448C
:1014900039441E465A465046029B09B2B0474FEAAD
:1014A000490901370D9B5FFA89F9FFB2D2E70023A2
:1014B000CDE90633ADE7079A50463A4402FB0511E1
:1014C000029A09B2CDE90042DB690B9A1E462B460F
:1014D000B047E4E7039E089B01369844F3B25FFAF5
:1014E00088F80393A3E711B0BDE8F08F126F0A08E4
:1014F000F0B5026A04460B4685B0002A34D10A29A9
:1015000008D1438A0282427E03EBC2036382012038
:1015100005B0F0BD0D29FAD0E17E007E657E71B187
:101520000621B4F9106001FB0061B4F90C60B1420E
:10153000C1BFB4F91210228201EBC5026282E28AB5
:10154000CDE902050192A28A20460092B4F910105A
:10155000B4F91220FFF772FE237E228A03EB4303C5
:1015600002EB43032382D2E70A2907D10023038237
:10157000937A417E428A01FB0323C7E70D29C6D037
:10158000157AA942C3D3517A9942C0D351685D1BE1
:10159000EDB201EBC505AF782FB3E97819B3E17E61
:1015A000007E667E91B195F905103944B4F910704A
:1015B00000FB0171B4F90C70B94207DD00272782E6
:1015C000B4F91210927A02FB06126282E28ACDE925
:1015D00002060192A28A20460092B4F91010B4F9D2
:1015E0001220FFF72BFE2979237E228A01FB032399
:1015F000B8E7012938BF0121017641767047000024
:1016000010B5064B04460360006D08B101F0D6F931
:10161000204600F0CFFC204610BD00BF74740A08BD
:1016200010B50446FFF7ECFF2046702102F08DFE56
:10163000204610BD30B585B004460D4602F058FE78
:10164000104A11490346CDE901214FF0FF328021B4
:1016500000922046202200F03BFD0C4B04F1580084
:1016600023600023C4E9143500F054F804F160004D
:1016700000F050F804F1680000F04CF8204605B086
:1016800030BD00BF801A0600A086010074740A08ED
:1016900013B50446503001F089F9636DD90705D5BB
:1016A0000222042104F1580000F048F8636D9A0703
:1016B00005D50022032104F1600000F03FF8636DBE
:1016C0005B0705D5022204F16800114600F036F8E8
:1016D00001233C2202212046009300F0F9FD02B0D4
:1016E00010BD10B5436D0446D90702D5583000F03F
:1016F00032F8636D9A0703D504F1600000F02BF80F
:10170000636D5B0705D504F16800BDE8104000F08B
:1017100022B810BD00210A22C0E900127047002340
:1017200010B50446C171837188B202F061FD08B141
:101730000323A37101F032F9206010BD38B50C46C7
:1017400005461146A0B202F029FD21462846BDE813
:101750003840FFF7E4BF38B50446C07902F048FDD1
:10176000003818BF0120A57925F00803C5F340050E
:101770008542A3710AD001F011F9A379206083F0AA
:101780000203A371A079C0F3C00038BD01F006F9CF
:101790002368C01AA3889842F4D3A37903F0010305
:1017A000AB42EFD001F0FAF8A379206083F0010397
:1017B00043F00803E5E791F85C3010B5044601609A
:1017C00013B1886D01F002F9204610BD10B5036811
:1017D000044693F85C2012B1986D01F0FFF82046A2
:1017E00010BDF8B51F469DF8243004460D46164638
:1017F00023B101235830037101F0D8F8089B23630B
:101800000023636306B1A66425B1294604F13800BC
:1018100001F001FF069BE0692365079BA4F84C706B
:10182000FF2BB8BFFF23A4F8543008B1FEF73BFCF0
:10183000B4F85400FEF733FCE061F8BD2DE9FF4138
:1018400004460025984617460E4601F039FE0D491C
:10185000E56104F1380001F0CBFE9DF82830FF224D
:10186000CDE902830F232046CDE9003231463B46C5
:101870002A46A56484F85C50FFF7B3FF204604B005
:10188000BDE8F081536E0A0810B50446204601F009
:101890002DFD0028FAD0204601F06BFCC0B210BD2F
:1018A0002DE9F0470546C46989460127FFF7ECFF9B
:1018B0004FF0000820703C46EB6993F800A00AF056
:1018C000F00A2846FFF7E0FF2646EB6901349855F9
:1018D00000F07F0303FB07880306A4B21FFA88F811
:1018E0004FEAC717EDD4631EBAF1300F89F8003004
:1018F00024D12846EF69FFF7C7FF38552846EF691E
:10190000FFF7C2FFF41C0236B6B2B8550226A4B2E5
:10191000B6B2B1462746C14512D22846FFF7B4FFFA
:10192000B5F8543009F10109BB4288BFEB691FFAD1
:1019300089F988BFD8550137BFB2ECE70026E7E741
:10194000A8EB0600B0452CBF06460026B5F85400AB
:101950003444A4B2A0422CBF20460020BDE8F0874A
:10196000F7B58C461E461D4607460023AE4605F0D9
:101970007F01BEF17F0F02A888BF41F080015C1C8F
:10198000BEF17F0F03444FEAD515E4B203F8041CFF
:1019900010D8C4F10403D11802F803C0C4F1050340
:1019A000134401A80532934206D010F8015B03F8F6
:1019B000015BF8E72346D9E7721C2244384601F060
:1019C0005AFB054600F0EAFF013478623444A8B2BD
:1019D000231A5842584103B0F0BD13B504460146DE
:1019E00001A8FFF7E8FEE022E36920461A70002212
:1019F000E3695A70E169022201F03DFB204601F0E3
:101A0000AFFC00F0CBFFC4E9090001A8FFF7DEFE40
:101A100002B010BD0233F0B5044698B20023CD5C8D
:101A20004DB1B4F854605F1C864204D9461C15546D
:101A30003B46B0B2F3E799B2441A2244091202F8C5
:101A4000021C02F8013CF0BD38B5044601F0DFFC91
:101A5000002814BF0125002502D1204601F080FC9A
:101A6000284638BD2DE9F04788B004468946174618
:101A70001E46DDF840809DF850A0FFF7E5FF0546C3
:101A8000002840F0CB80214601A8FFF794FEA16C0E
:101A9000002940F087802B462046B4F84C20A16BEB
:101AA00001F026FD002879D0012323849DF85430CD
:101AB000E269042B40F08180594B186899889B7922
:101AC000ADF80C108DF80E300290C2F805009DF8AC
:101AD0000E30BDF80C10D3720C23A2F80910B8F127
:101AE000000F7FD09DF848009DF84420400140EA57
:101AF000C20040F00600C0B2BAF1000F01D100F000
:101B0000FD001FB1002E6FD140F08000E269D0547B
:101B1000226DE169581C12120A54E169206D9A1C69
:101B20008854033349462046E269FFF773FF0346B2
:101B3000B8F1000F0BD04146E2692046FFF76AFF7B
:101B4000E269034613992046FFF764FF034667B135
:101B500039462046E269FFF75DFF03462EB1314664
:101B60002046E269FFF756FF0346053B1021E26974
:101B70009BB22046FFF7F4FE00F010FF4FF47A7698
:101B8000C4E90900204601F0B1FB80BB00F006FF6C
:101B9000A36AC01A236D73439842F3D9204601F01B
:101BA000DFFB34E002A802F035F82B462046B4F8FB
:101BB0004C2002A901F02AFB74E71A4B0DF1080C26
:101BC000186859681B7AACE803008CF8003002AB47
:101BD00003CBC2F80500C2F809109CF8003053731B
:101BE0000E237CE7022087E740F0C0008EE7204606
:101BF00002A9FFF755FE0428D0D1E369DE78002E54
:101C0000CCD100F0CBFE0125A06284F82C6001A8A5
:101C1000FFF7DCFD284608B0BDE8F0870025F9E7AE
:101C2000C4740A08CB740A087FB501230422CDE9E5
:101C3000043200231A46CDE90233CDE90033FFF721
:101C400011FF07B05DF804FB73B504460E46FFF7BD
:101C5000FBFE0546C8B1214601A8FFF7ACFD622294
:101C6000E36920461A700222E3695A70E36932126E
:101C70009A70E3690422DE70E16901F0FCF9051E47
:101C800001A818BF0125FFF7A1FD284602B070BDCD
:101C900073B504460E46FFF7D7FE0546C8B1214688
:101CA00001A8FFF788FD7222E36920461A7002221C
:101CB000E3695A70E36932129A70E3690422DE70B4
:101CC000E16901F0D8F9051E01A818BF0125FFF749
:101CD0007DFD284602B070BD2DE9F04F87B000AF02
:101CE0000446FFF7B1FE8146F8B1214607F1140022
:101CF000FFF761FD00F052FE4FF47A73226D064645
:101D00005343A26A821A9A4203D8626A821A9342A1
:101D10001FD294F82C306BB1204601F021FB4FF01C
:101D2000000907F11400FFF751FD48461C37BD4676
:101D3000BDE8F08FC021E26920461170E26953705E
:101D4000E169022201F097F90123C4E9096684F8E8
:101D50002C30204601F0CAFA0028E2D0204607F1D4
:101D60001301FFF79DFD83460028DAD0E369A662E0
:101D7000197801F0F002302A7DD1D4F830A0BAF100
:101D8000000FCED097F813C0C7F804D003EB0C02B5
:101D90005578917801EB05218DB2694605F108026D
:101DA000D208A1EBC202954668460CF10302FA6024
:101DB00003EB020E0DEB0502C7F808D03A603A6853
:101DC000B9688A4206D00A461EF8018B02F8018BD8
:101DD000BA60F4E70022425593F80080F96808F0F1
:101DE0000608ABEB0C02033AB8F1020FA2EB0502B6
:101DF000294424D113F801E0194491F801B00CF101
:101E000005012944023A19440BEB0E2BD04740221E
:101E1000E3691FFA8BFB1A70E36983F80180E369B9
:101E20004FEA2B229A70E369042283F803B020461C
:101E3000E16901F020F96662D7F804D071E7B8F1E2
:101E4000040F15D113F801E0194491F801B00CF119
:101E500005012944023A19440BEB0E2BD0475022BE
:101E6000E3691FFA8BFB1A700222E3695A70D6E706
:101E70001944D047E0E7502A08D19A78D97820460B
:101E800001EB022189B2FFF7DFFE4AE7402A12D1B7
:101E9000626B002A3FF445AFBBF1040F7FF441AF02
:101EA00011F0060F7FF43DAF9978D87800EB012050
:101EB00080B2904735E7602A08D19A78D9782046D1
:101EC00001EB022189B2FFF7E3FE2AE7702ADFD097
:101ED000902A3FF426AFC02A0AD1D0221A700022DD
:101EE000E36920465A70E169022201F0C4F818E75C
:101EF000D02A04BF002384F82C3012E7F7B504463B
:101F00000F461646FFF7A0FD054610B3214601A86F
:101F1000FFF751FC238C01339BB2EBB12384238C5C
:101F2000E2691B125371E369228C39469A71E269A6
:101F300007232046FFF76EFDE36982211E54043813
:101F400083B2E2692046FFF70BFD054601A8FFF7C3
:101F50003DFC284603B0F0BD0123DFE70022FFF778
:101F6000CDBF000038B50546FFF76EFD10B128461D
:101F7000FFF733FDE86908B1FEF795F805F1380081
:101F800001F0ECFA0A4BAC692B607CB16368013B51
:101F900063605BB9236820469B689847A368013B50
:101FA000A3601BB923682046DB689847284638BDE4
:101FB000647E0A0810B5044B04460360C06A08B189
:101FC00000F042FF204610BD90790A0810B5044683
:101FD000FFF7F0FF2046502102F0B7F9204610BD70
:101FE000002910B550DBB0F90C408C424CDD002AC2
:101FF0004ADBB0F90E40944246DD847E022C22D0AA
:10200000032C29D0012C04D1D243048914440A465C
:1020100021B2012B26D0022B37D0002B34D113460E
:10202000002AB0F90840B8BFD31D43F3CF0304FB27
:1020300003110123C06A02F007029340425C22EAC6
:102040000302425420E0C943D24304892144448915
:1020500009B2224412B2DCE7C94344890C44114658
:1020600022B2D6E71346002AB0F90840B8BFD31D04
:1020700043F3CF0304FB0311C36A02F007000122FC
:102080008240585C02435A5410BD1346002AB0F9EE
:102090000840B8BFD31D43F3CF0304FB0311012352
:1020A000C06A02F0070203FA02F2435C5A40C8E732
:1020B00010B5044690F93600012180B202F07FF895
:1020C000606A18B1BDE8104000F00EBF10BD0000FE
:1020D00070B504461D460026FFF746F8114B6662B0
:1020E000236015B902F004F90546FF2384F8333064
:1020F00084F836309DF910304FF6FF7284F837308F
:10210000094B2046A363012384F83C30059BC4E9B6
:102110000A56A364069BA2862664A4F84460E3647E
:1021200070BD00BF90790A08DC740A08F8B504464F
:10213000806A0D4690B194F9301001F00BFFA06A4F
:10214000002103689B689847A06A294603689B683A
:102150009847A06ABDE8F84001F003BF94F9353014
:10216000014698B202F02BF8606A20B12946BDE81A
:10217000F84000F03FBF0826802794F9330005EAB5
:10218000070180B202F01BF894F93400012180B2FB
:1021900002F015F894F93400002180B202F00FF833
:1021A000013E4FEA5707E8D1F8BD38B50446806ACA
:1021B0000D4680B1A16C01F0BFFE002D204614BF7A
:1021C000A721A621FFF7B2FFA06A88B1E16CBDE8A4
:1021D000384001F0B1BE606A18B104F1380100F076
:1021E0009DFE94F93600002180B201F0E8FFE4E79B
:1021F0002046BDE83840FFF75BBF2DE9F8430446B1
:10220000806A0D468F1840B394F9301001F0A2FE99
:10221000A06A0021036801269B689847BD42A06A16
:1022200017D01F2E0CD901F09CFE94F93010A06A33
:1022300001F090FEA06A0021036801269B68984780
:10224000A06A15F8011B036801369B689847F6B22F
:10225000E4E7BDE8F84301F084BE94F93530014667
:1022600098B201F0ACFFAF4222D0606A15F8019B32
:1022700018B1494600F0BEFEF5E708264FF0800889
:1022800094F9330009EA080180B201F098FF94F94B
:102290003400012180B201F092FF94F93400002152
:1022A00080B201F08CFF013E4FEA5808E8D1DAE72E
:1022B000BDE8F883B0F90A300021DA1D48BF03F108
:1022C0000E02B0F90830D2105A43C06A02F0A0BE24
:1022D0002DE9FF411E46C36A04460F4615469DF888
:1022E0002880B3B12046FFF7E5FFB4F90A00B4F93E
:1022F000081020281FDC20230122CDE9013273239E
:1023000020387339009300EBD070894B01EBD17109
:102310001FE0B0F90A30D81D48BF03F10E00B4F930
:102320000830C010584300F087FDE0620028D9D182
:1023300004B0BDE8F08140234FF0010CCDE9013C31
:1023400052234038523900937A4B00EBD07001EBA6
:10235000D17140F34F0241F34F012046FEF71AFFBF
:10236000A06A84F83170002878D0002D74D1B4F9B7
:102370000A30202B0CBF3C253D2584F83050B8F1A5
:10238000000F01D001F0DCFDFEB194F93700002808
:102390001BDB012180B201F001FF94F9370001211C
:1023A00080B201F00CFF012001F000FB94F937002E
:1023B000002180B201F003FF0A2001F0F7FA94F93E
:1023C0003700012180B201F0FAFEA06A002874D023
:1023D000A16C01F0B1FD042220465749FFF70DFF23
:1023E000A17A20460139C9B2FFF7A0FE5349042261
:1023F0002046FFF702FF94F931302046012B0CBF35
:1024000010211421FFF792FE042220464C49FFF7C9
:10241000F4FEA3684B4A93425CD1042220464A4909
:10242000FFF7EBFED9212046FFF780FE94F931300B
:102430002046012B0CBF2221F121FFF777FE204619
:1024400006224249FFF7D9FEA06A002863D0E16C5A
:1024500001F072FD01206BE76DB28EE794F9350053
:10246000012180B201F09AFE94F93600012180B278
:1024700001F094FE94F93600012180B201F09FFE34
:10248000656A3DB1B8F1000F3FF47EAF284600F019
:102490001DFD79E794F93300012180B201F07EFE41
:1024A00094F93400012180B201F078FE94F93400EF
:1024B000294680B201F083FE66E7606A18B104F134
:1024C000380100F02BFD94F93600002180B201F0B4
:1024D00076FE80E71E4A93420ED11E490322204613
:1024E000FFF78BFE94F93130012B0CBF9F21CF21D8
:1024F0002046FFF71BFE95E7174A934292D11749F2
:1025000003222046FFF779FE94F93130012B0CBFEE
:102510001021AF21ECE794F93600012180B201F0DF
:102520004EFE606A002895D000F0DEFC92E700BF06
:10253000A8770A08E8740A08F0790A08F4790A0802
:10254000F8790A0880002000027A0A08FC790A0853
:1025500080004000067A0A0860001000097A0A0824
:1025600070B5002ABDF810403FDBB0F90A50954223
:102570003BDD0029BEBF5B1800211BB2B0F908602B
:102580005D18B542C4BF731A1BB2002B2DDDD510E8
:1025900006FB0511C06A012C014402F007004FF050
:1025A000010202FA00F2D2B216D0022C0BD0E4B92A
:1025B000D2430B44D2B2994217D011F8010B10400C
:1025C00001F8010CF7E70B4499420ED011F8010B0A
:1025D000504001F8010CF7E70B44994205D011F87F
:1025E000010B104301F8010CF7E770BDF0B50029AD
:1025F000BDF8146076DBB0F90850A94272DA002AFF
:10260000BEBFD21813B20022B0F90A40D718A742B1
:10261000C4BFA31A1BB2002B64DDC2F3C40405FBC4
:102620000411C76A12F00702DBB207EB010424D0E1
:10263000C2F10802D2B2934238BF4FF0FF0C2B4DCB
:1026400038BFA2EB030EAD5C3CBF4CFA0EFC0CEAAB
:102650000505012E07D0022E2ED04EB917F801C065
:102660002CEA050503E017F801C045EA0C057D5486
:10267000934237D3B0F908100C449A1AD2B2072A01
:102680000ED9022E1DD113462178083BC943217073
:10269000B0F90810DBB2072B0C44F5D802F00702A2
:1026A00002B3134B012E9B5C19D0022E1BD0CEB966
:1026B000227822EA030314E017F801C085EA0C052A
:1026C000D5E7002E14BFFF25002513462570083BD3
:1026D000B0F90810DBB2072B0C44F7D8DEE72278FC
:1026E00013432370F0BD22785340FAE7E0790A08DB
:1026F000E8790A0830B41446827EBDF80850022AF0
:102700000DD0032A18D0012A11D1E44302891444C0
:1027100024B20A460295214630BCFFF767BFE44366
:1027200042891444CA18018924B2891A09B222467E
:10273000029530BCFFF714BFCA184189891A09B243
:10274000E7E730B41446827EBDF80850022A0DD067
:10275000032A18D0012A11D1E2180489A41A24B23C
:102760000A460295214630BCFFF7FABEC9430289EA
:102770001144E218448909B2A41A24B222460295EF
:1027800030BCFFF733BFC9434289114409B2E7E7C0
:102790002DE9F8430446806A002841D0A16C01F07D
:1027A000CBFB052220464649FFF727FD217A20462C
:1027B0000139C9B2FFF7BAFCD4E90A06B4F90A3004
:1027C000DD1D48BF03F10E052389ED105D43ADB259
:1027D000354400283AD094F9301001F0BBFBA06AD0
:1027E0004021036801279B689847AE42A06A24D025
:1027F0001F2F0CD901F0B5FB94F93010A06A01F03D
:10280000A9FBA06A4021036801279B689847A06A3A
:1028100016F8011B036801379B689847FFB2E4E78D
:10282000606A18B104F1380100F078FB94F93600C1
:10283000002180B201F0C3FCB3E701F092FBA06A73
:1028400078B3E16CBDE8F84301F076BB94F935004C
:10285000012180B201F0B3FCAE42F0D0606A16F8FC
:10286000019B18B1494600F0C5FBF5E708274FF07A
:10287000800894F9330009EA080180B201F09FFC56
:1028800094F93400012180B201F099FC94F93400EC
:10289000002180B201F093FC013F4FEA5808E8D1D3
:1028A000DAE794F93600012180B201F088FC606A11
:1028B00018B1BDE8F84300F017BBBDE8F88300BFCE
:1028C0000C7A0A0801F072B800F068B870477047D7
:1028D0007047000003065ABF024B53F82000002047
:1028E000704700BF147A0A0803065ABF024B53F818
:1028F00020000020704700BF147C0A0808B5024B76
:102900001B685B68019308BDB001060808B5024B5F
:102910001B689B68019308BDB001060808B5024B0F
:102920001B68DB68019308BDB001060808B5024BBF
:102930001B681B69019308BDB001060808B5024B6E
:102940001B685B69019308BDB001060808B5024B1E
:102950001B689B6A019308BDB001060808B5024BCD
:102960001B681B6B019308BDB001060808B5024B3C
:102970001B689B6F019308BDB001060808B5024BA8
:102980001B685B68019308BD9C01060808B5024BF3
:102990001B68DB68019308BD9C01060808B5024B63
:1029A0001B685B69019308BD9C01060808B5024BD2
:1029B0001B681B6B019308BDD001060808B5024BCC
:1029C0001B685B6B019308BDD001060808B5024B7C
:1029D0001B689B6B019308BDD001060808B5024B2C
:1029E0001B681B6C019308BDD001060808B5024B9B
:1029F0001B685B6C019308BDD001060808B5024B4B
:102A00001B689B6C019308BDD001060808B5024BFA
:102A10001B68DB6C019308BDD001060808B5024BAA
:102A20001B685B6D019308BDD001060808B5024B19
:102A30001B689B69019308BDC401060808B5024BD9
:102A40001B685B6A019308BDC401060808B5024B08
:102A50001B689B6A019308BDC401060808B5024BB8
:102A60001B68DB6A019308BDC401060808B5024B68
:102A70001B681B6B019308BDC401060808B5024B17
:102A80001B685B6B019308BDC401060808B5024BC7
:102A90001B689B6B019308BDC401060808B5024B77
:102AA0001B681B6C019308BDC401060808B5024BE6
:102AB0001B681B6C019308BDAC01060808B5024BEE
:102AC0001B68DB6C019308BDAC01060808B5024B1E
:102AD0001B689B6D019308BDAC01060808B5024B4D
:102AE0001B68DB6D019308BDAC01060808B5024BFD
:102AF0001B681B6E019308BDAC01060808B5024BAC
:102B00001B685B6E019308BDAC01060808B5024B5B
:102B10001B689B6E019308BDAC01060808B5024B0B
:102B20001B68DB6E019308BDAC01060808B5024BBB
:102B30001B681B6F019308BDAC01060808B5024B6A
:102B40001B685B6F019308BDAC01060808B5034B19
:102B50001B68D3F88030019308BD0000AC01060863
:102B600008B5024B1B681B68019308BDBC01060831
:102B700008B5024B1B685B68019308BDBC010608E1
:102B800008B5024B1B689B68019308BDBC01060891
:102B900008B5024B1B68DB68019308BDBC01060841
:102BA00008B5024B1B681B69019308BDBC010608F0
:102BB00008B5024B1B681B6A019308BDBC010608DF
:102BC00008B5024B1B681B6B019308BDBC010608CE
:102BD00008B5024B1B685B6C019308BDBC0106087D
:102BE00008B5024B1B681B68019308BDB4010608B9
:102BF00008B5024B1B685B69019308BDB401060868
:102C000008B5024B1B68DB69019308BDB4010608D7
:102C100008B5024B1B681B6A019308BDB401060886
:102C200008B5024B1B685B6A019308BDB401060836
:102C300008B5024B1B68DB6B019308BDB4010608A5
:102C400008B5024B1B681B68019308BDD801060834
:102C500008B5024B1B685B68019308BDD8010608E4
:102C600008B5024B1B681B69019308BDD801060813
:102C700008B5024B1B685B69019308BDD8010608C3
:102C800008B5024B1B689B69019308BDD801060873
:102C900008B5024B1B68DB69019308BDD801060823
:102CA00008B5024B1B681B6A019308BDD8010608D2
:102CB00008B5024B1B685B6C019308BDC001060898
:102CC00008B5024B1B689B6C019308BDC001060848
:102CD00008B5024B1B685B6B019308BDA801020895
:102CE00008B5024B1B681B6D019308BDA8010208C3
:102CF00008B5024B1B685B68019308BDA401060878
:102D000008B5024B1B685B69019308BDA401060866
:102D100008B5024B1B68DB6A019308BDA4010608D5
:102D200008B5034B1B68D3F89030019308BD000031
:102D3000A401060808B5034B1B68D3F89C30019327
:102D400008BD0000A401060808B5024B1B685B68BB
:102D5000019308BDC801060808B5024B1B689B68B3
:102D6000019308BDC801060808B5024B1B68DB6863
:102D7000019308BDC801060808B5024B1B681B6912
:102D8000019308BDC801060808B5024B1B685B69C2
:102D9000019308BDC801060808B5024B1B689B6972
:102DA000019308BDC801060808B5024B1B68DB6922
:102DB000019308BDC801060808B5024B1B681B6AD1
:102DC000019308BDC801060808B5024B1B681B6BC0
:102DD000019308BDC801060808B5024B1B685B6B70
:102DE000019308BDC801060808B5024B1B681B6C9F
:102DF000019308BDC801060808B5024B1B685B6C4F
:102E0000019308BDC801060808B5024B1B689B6802
:102E1000019308BDCC01060808B5024B1B68DB69AD
:102E2000019308BDCC01060808B5024B1B68DB6B9B
:102E3000019308BDCC01060808B5024B1B681B684E
:102E4000019308BDA001060808B5024B1B685B682A
:102E5000019308BDA001060808B5024B1B689B68DA
:102E6000019308BDA001060808B5024B1B68DB6989
:102E7000019308BDA001060808B5024B1B685B6AF8
:102E8000019308BDA001060808B5024B1B681B6B27
:102E9000019308BDA001060808B5024B1B685B6CD6
:102EA000019308BDA00106088068FFF7B7BD70B5A3
:102EB000002604460D4640F8086FFFF797FD2846A8
:102EC0002570FFF79DFE2046666070BD10B5044674
:102ED0008068FFF79BFD20784FF6FF71FFF780FEBB
:102EE0002046FFF7E1FF10BD08B5FFF7DDFF08BD85
:102EF00030B50024400818601868E5B2884206D949
:102F00000134082C02D040081860F5E70725024B71
:102F10005B5D137030BD00BF147E0A082DE9F043DD
:102F200006468FB080680C46FFF770FD1422002122
:102F300009A8357802F06CF80B230022284609A96D
:102F4000ADF82430FFF76CFE9DF82D3013B19DF8DD
:102F50002C5055B100270125B946B84623795DB1FB
:102F6000C3B100200FB0BDE8F083DDF830809DF8DC
:102F700034909DF83570F1E7002B35D1A3684345B7
:102F800008D18DF820908DF82170BDF82020A389FC
:102F90009A42E6D00023A1688DF80F300A9804AB5E
:102FA0000DF10F02FFF7A4FF217985B989B9A36854
:102FB00043450ED38DF820908DF82170BDF8202068
:102FC000A3899A4205D1049B434502D1C9E7002950
:102FD000F9D100230193637B9DF80F200093237B9D
:102FE0003078FFF725FEBCE72B462A460121CDE9C4
:102FF0000055F5E708B50078FFF7FAFDC0B208BD47
:1030000010B50446006818B1FFF71EFF00232360C7
:1030100010BD10B50446FFF7F3FF204610BD0000B9
:103020000222002010B5084B084C1A60084B2060A3
:10303000A080A071A360FFF75BFE2046BDE81040B2
:10304000044A054901F07CB9380300202C03002014
:103050000000FFFFD801002013300A0813B50368F1
:103060008DF80710DC6B012247F230530DF1070198
:10307000A04702B010BD10B40368DC6B47F23053B8
:10308000A44610BC604713B5134602688DF80710BC
:10309000D46B0DF107010122A04702B010BD7047AB
:1030A0007047000010B50446064B0846994204F1EB
:1030B0000C0404D001F04EF9002808BF002420467B
:1030C00010BD00BF547E0A0810B50446AC2101F0C3
:1030D0003CF9204610BDFCF7E4BF000038B50B4BAF
:1030E0008469054603607CB16368013B63605BB93A
:1030F000236820469B689847A368013BA3601BB9DF
:1031000023682046DB689847284638BD647E0A0855
:1031100010B50446FFF7E2FF20461C2101F015F927
:10312000204610BD70B5044606464D69044B8C35EB
:1031300044F8043B0FCD0FC42B683046237070BD9C
:10314000E07E0A0810B543690446B3F88620B3F858
:1031500084309A4205D06369B3F884201344187907
:1031600010BD03681B6998470028F4D14FF0FF3069
:10317000F6E710B543690446B3F88620B3F8843007
:103180009A4208D06369B3F88420511CA3F88410D4
:103190001344187910BD03681B6998470028F1D1C2
:1031A0004FF0FF30F6E7F8B543691746B3F88620CD
:1031B000B3F8843005469A420E4616D06969304607
:1031C000B1F88430B1F88640E41ABC4228BF3C46CE
:1031D00004332246194401F00DFF6A69B2F88430C5
:1031E0002344A2F884302046F8BD03681B69984741
:1031F0000028E3D14FF0FF34F5E700234269A2F83D
:1032000084304269A2F88630704700002DE9F0430F
:103210001F4603688BB0DB6A05460C461646984786
:10322000384600F05FFF0368DB689847002854D0F9
:1032300033460622012102200097D5F81480FFF7BB
:103240009FFC2023C8F800004FF00008CDE90238A9
:103250006B6901201B6823490193234B02AA009349
:103260004346FFF73DFD6B691868FFF781FC0028B6
:1032700033D02846FFF7C1FF0223ADF80830E379C9
:1032800076BA8DF80C30A3794FF4FA508DF80D30E2
:103290006379ADF80A608DF80E3014F8043F8DF8AC
:1032A0000F30FFF705FD6B6906461022186802A96A
:1032B000FFF76EFC81463046FFF7FAFC0FCC6E69D3
:1032C0008C360FC6236833702F61B9F1000F07D019
:1032D0002B682846DB6A984740460BB0BDE8F08370
:1032E0000120FAE71C7E0A08237E0A0838B54269E5
:1032F0000446B2F886302BB1B2F884209A4201D14C
:10330000FFF77BFF206900F0EDFE0368DB6898475C
:10331000F8B163691868FFF72BFCD0B16069B0F8A9
:1033200086107F2915D8051DC1F180020023006891
:103330002944FFF735FC00280BDD6369B3F88620CC
:103340000AB9A3F884206369B3F886201044A3F86F
:1033500086006369B3F88600B3F88430C01A38BDBC
:1033600038B5436904461868FFF702FC18B1636971
:103370001868FFF71DFC6569FFF722FC286060698B
:10338000112200218C3001F043FE2046BDE8384078
:10339000FFF733BF10B5436904461868FFF7E8FB31
:1033A00008B9002010BD206900F09CFE0368DB68AE
:1033B00098470028F5D063691868FFF7D1FBB0FA89
:1033C00080F04009EEE708B5FFF7E4FF003818BFCA
:1033D000012008BD2DE9F3410027476004460D4652
:1033E00016469846FFF7D6FF70B1CDE900876069B1
:1033F0003B46324629460068FFF7EAFB002800DA20
:10340000606002B0BDE8F0814FF0FF30F8E770B5C2
:103410000546FFF7BFFFE8B96B69B3F88610B3F84C
:103420008420914216D11868FFF7A2FB08B900204A
:1034300070BD6B691868FFF793FB01280446F6D14D
:103440002B6828461B69984730B92B682846DB6AE9
:103450009847ECE70120EBE72046E9E7002310B5A9
:1034600004460160C0F88430883000F087FB2046B5
:1034700010BD0000F8B54FF47A720023C0E90132A4
:103480000D4A0361026043610446AC200E46FCF71E
:1034900004FE051E05F10C0708D00123C5E9013320
:1034A000064B314638462B60FFF7D8FF2046C4E96B
:1034B0000575FFF7A2FEF8BD647E0A08407E0A0883
:1034C00010B50446FFF77CFB01462046FFF7D2FF0C
:1034D000204610BD10B504460068FFF749FB10B147
:1034E0002068FFF765FB204610BD0C30FFF7F2BFE8
:1034F0002DE9F0431F4603688FB0DB6A06460D4690
:1035000090469847134800F098FDF0B102A800F0EB
:1035100035FB284601F0B2FD002481B23B46284627
:10352000009403AAFFF7CCFB90B9336809ADD3F838
:103530002090094B03AC08930FCC0FC5236842467B
:103540002B7030463B4608A9C8470FB0BDE8F08352
:103550002046FAE7B8070020E07E0A0810B50446C6
:103560000068FFF771FC204610BD10B504460068E6
:1035700008B1FFF769FC0023C4E90133236010BDE3
:1035800038B504460D4600680131FFF765FC10B1FF
:10359000C4E90005012038BD10B50368044623B115
:1035A00043688B4201D3012010BD2046FFF7E8FF9E
:1035B0000028F9D0A368002BF5D122681370F2E738
:1035C00070B50E46114604461546FFF7E5FF20B9D3
:1035D0002046FFF7CAFF204670BD2A4631462068C4
:1035E000A56001F007FD00212268A368D154F2E72D
:1035F00038B5002304460D46C0E9003383600373E9
:1036000039B1084601F03AFD294602462046FFF747
:10361000D7FF204638BD38B505460C4649B10846A7
:1036200001F02CFD214602462846FFF7C9FF284637
:1036300038BDFFF79AFFFAE708B582683AB921B1B9
:103640000878B0FA80F0400900E0012008BD006869
:1036500009B90078F5E701F007FDF2E708B5006861
:1036600020B101F0ADFC01F03DFC08BD0020FCE7FD
:10367000F8B506460D4600248F18BD420CD03368BD
:1036800030469B6815F8011B9847031E01DB1C445C
:10369000F3E7002C08BF1C462046F8BD70B5054670
:1036A0000C46084649B101F0E9FC2B680246214668
:1036B0002846BDE87040DB68184770BD08B5FFF7C5
:1036C000EDFF08BD03689B68184738B50D21054616
:1036D000FFF7F8FF0A2104462846FFF7F3FF2044CE
:1036E00038BD38B50546FFF7D9FF04462846FFF731
:1036F000ECFF204438BD0023012A98BF0A2230B5D0
:103700008BB00C468DF8243009A92546B4FBF2F4A1
:1037100004FB1253DBB2092B94BF30333733DBB2D7
:10372000AA4201F8013DF0D9FFF7B8FF0BB030BD58
:103730002DE9F74F05461946104692461F469DF85B
:10374000306001F071FB40B150492846FFF7A6FFF9
:103750000446204603B0BDE8F08F27F000444FF048
:10376000FF32504621464A4B01F05EFB48B94FF00C
:10377000FF3250462146464B01F038FB08B9454917
:10378000E3E74FF0604250463946434B01F042FBBD
:1037900008B14249D9E74FF0604250463946404BA4
:1037A00001F01AFB0028F4D10022002350463946CC
:1037B00001F012FB044630B12D212846FFF782FFAD
:1037C000044607F100474FF0000B00204FF00008BF
:1037D0003449DFF8D8905FFA8BF39E4206D942460F
:1037E0004B4601F0B1F90BF1010BF4E73B465246B1
:1037F00000F0CAFE8946804601F054FB074600F0FF
:10380000FFFF02460B464046494600F0BBFE0A2237
:103810008046894628463946FFF76DFF044426B1A5
:1038200028462149FFF73AFF04444FF0000ADFF829
:103830007CB0013EF6B2FF2E8BD052465B4640462E
:10384000494601F057F88046894601F003FB071E00
:1038500019DA2D212846FFF735FF034679420A225F
:1038600028460193FFF747FF019B034438461C4459
:1038700000F0D6FF02460B464046494600F082FE65
:1038800080468946D5E739460023E8E7A87E0A083E
:10389000FFFFEF7FAC7E0A08FFFFEF41B07E0A0812
:1038A000FFFFEFC10000E03FB47E0A0800002440A3
:1038B00037B59DF8181005460091FFF739FF04460B
:1038C0002846FFF702FF204403B030BD2DE9F04148
:1038D00086B000AF05460E46381D142114463B60E5
:1038E000FFF7CAFA13280ED82846391DFFF7D6FE6F
:1038F00004461EB12846FFF7E8FE04442046183768
:10390000BD46BDE8F08100F1080323F00703E84657
:10391000ADEB030D2246411C3B686846FFF7ACFA4D
:1039200069462846FFF7BAFE0446C546E1E710B5EA
:103930000446FFF733F8E060236820465B69984748
:10394000002808DAFFF72AF8E368C01AA36898424B
:10395000F2D34FF0FF3010BDF8B506460D461746BE
:103960000024BC4207D03046FFF7E1FF031E02DB14
:103970002B550134F5E72046F8BD002340681A4670
:103980001946FFF701BA0000014B024A1A6070475E
:103990003C030020B67E0A08024B1A68024B1A60EC
:1039A000704700BF00000020400300200021FFF707
:1039B000A7B910B58368044613B10322014698479E
:1039C000204610BD10B50446FFF7F3FF204610BD9A
:1039D00000230348034A0449836000F0B1BC00BFE0
:1039E00044030020D8010020C5390A08014B1860A3
:1039F000704700BF0400002008B5134B43B100F02E
:103A00007DF903681B699847002801DDAFF300804A
:103A10000E4B43B100F02AFA03681B69984700284F
:103A200001DDAFF300800A4B0BB1AFF30080094B0F
:103A300043B100F0A1F903681B699847002801DD34
:103A4000AFF3008008BD00BF0000000000000000D0
:103A5000000000000000000008B5FFF7CDFFFEF7F2
:103A60009DFF014B186008BDC00700200248034AB3
:103A70000349121A01F0BEBA00400240044002405D
:103A800070830A08002307B51A466FF07701009388
:103A9000FFF750F903B05DF804FB000007B5438859
:103AA0000A2B08D0502B0BD1094B1B684BB103B02C
:103AB0005DF804EB1847FFF7E5FF03B05DF804FB82
:103AC00000231A466FF077010093FFF733F9F4E70C
:103AD0005803002038B5124C00211248FFF7DCF9DA
:103AE000114D2368AB420CBF012200220F4B1A700C
:103AF00002D0FFF7BBFF2560FEF740FF044601F050
:103B00008FFA0B4B13B12046AFF300800021084819
:103B1000FFF78AF9BDE8384000210648FFF700B9F1
:103B200000400240ED390A081E1C279A5403002069
:103B3000000000009D3A0A08704710B5044618219D
:103B400000F003FC204610BDF8B50E46002400F13D
:103B50000807051D17F8011D0A223046FFF7CBFDA7
:103B6000AF42044401D12046F8BD002CF2D02E21F2
:103B70003046FFF7A7FD0444ECE7000010B504460B
:103B8000044B1122002140F8043B01F041FA204689
:103B900010BD00BFE07E0A080346074A10B543F88F
:103BA000042B01F1100251F8044B914243F8044BED
:103BB000F9D10A781A7010BDE07E0A08024AC0E9FD
:103BC0000021042202757047E07E0A0810B59DF8B6
:103BD000084044EA0324042344EA024444EA01641A
:103BE0004460037510BD000037B5044D05609DF8B5
:103BF00018500095FFF7EAFF03B030BDE07E0A08D9
:103C000013B5CB7800938B784A780978FFF7DEFFFD
:103C100002B010BD10B50446024B0360FFF7F0FF81
:103C2000204610BDE07E0A0841747047704708B511
:103C30000021007CFFF724F840EAE07008BD08B5D9
:103C40000121007CFFF71CF840EAE07008BD08B5D0
:103C5000007CFFF70DF820EAE07008BD08B5007C95
:103C6000FEF7FEFF20EAE07008BD38B50446007C90
:103C70000D46FEF7FDFF002801DC607C28B12946D7
:103C8000207CFFF705F820EAE07038BD007CFFF7E4
:103C900007B810B50446142100F057FB204610BDAC
:103CA00010B54FF47A73044608460021C4E90113A5
:103CB000044B20742360012311466374FEF7C0FF98
:103CC000204610BDF47E0A080022007CFEF7C0BF2B
:103CD00010B504461422002101F09AF9054B204644
:103CE0006360054BE36040F201132381812323824B
:103CF00010BD00BF8C0300208D04002030B50F4D97
:103D000087B001A8FFF7E4FF2978BFF35B8F11F0BC
:103D1000010410D12846FCF7D3F960B1214601AA6D
:103D20000748FFF7BDFF2846FCF7CFF9054A0649CB
:103D3000034800F005FB024807B030BD5C030020DB
:103D400064030020D80100202D3C0A0810B5044669
:103D50001422002101F05CF9054B20466360054BFD
:103D6000E36040F2011323818123238210BD00BF51
:103D70000E0500200F06002010B50F4C86B001A8DC
:103D8000FFF7E4FF2378BFF35B8FDB0710D42046F7
:103D9000FCF796F960B1012101AA0848FFF780FFFE
:103DA0002046FCF792F9064A0649044800F0C8FA92
:103DB000024806B010BD00BF600300207803002059
:103DC000D80100202D3C0A0870474174704708B59F
:103DD000007CFEF763FE20EAE07008BD08B5007CB9
:103DE000FEF734FE20EAE07008BD08B5007CFEF75F
:103DF0003DFE40EAE07008BD08B5007CFEF72EFEEF
:103E000040EAE07008BD007CFEF738BE70B5467C25
:103E100004460D462EB12946207CBDE87040FEF7D1
:103E20000DBE007CFEF73AFE0028F4DC304670BD83
:103E300010B50446142100F088FA204610BD000099
:103E40004FF0000C10B50446084611464FF47A7244
:103E5000C4E901C2044A20742260012262741A4635
:103E6000FEF7E4FD204610BD247F0A0838B50D4D4D
:103E70002978BFF35B8F11F0010411D12846FCF7BC
:103E80001FF968B12146084A084B0948FFF7D8FFD7
:103E90002846FCF71AF9074A0749054800F050FA86
:103EA000034838BD90060020940600201807002023
:103EB0009C070020D8010020C93D0A087047F8B5CA
:103EC000064615460C468F18BC4206D0336830466D
:103ED0009B6814F8011B9847F6E72846F8BD0022B6
:103EE000007CFEF703BE0021007CFEF707BE002128
:103EF000007CFEF70BBE0021007CFEF70FBE002108
:103F0000007CFEF713BE10B50446142100F01DFA24
:103F1000204610BD10B54FF47A73044608460021C0
:103F2000C4E90113034B114623602074FEF70EFE13
:103F3000204610BD547F0A080022007CFEF7B6BD63
:103F40000023007C1A461946FEF7B8BD0022007C0B
:103F5000FEF7BCBDC9B2FFF7F9BF0022007CFEF737
:103F6000BDBD0121FFF7F9BF002240681146FEF7F1
:103F700003BFF0B5154689B011220E460446002154
:103F800003A801F045F8284601F078F8002781B22F
:103F900073682846009703AAFEF792FE30B13946AF
:103FA0002046FFF70BFE204609B0F0BD204603A9CE
:103FB000FFF7F2FDF7E7002240681146FEF7FCBE6E
:103FC000002240681146FEF707BF00224068FEF756
:103FD000FBBE0022406881F00101FEF7E5BE002330
:103FE00040681A461946FEF7D7BE002240681146BF
:103FF000FEF7B2BE002202214068FEF7B5BE0023E4
:1040000040681A46FEF7A0BE0422024B5A60024ADC
:104010001A607047B00700207C7F0A0800234068C0
:104020001A46FEF791BE002202214068FEF79CBEB0
:10403000002240681146FEF78FBE002240681146FC
:10404000FEF79ABE002340681A461946FEF79CBE4A
:10405000002340681A461946FEF79EBE00214068BC
:10406000FEF7C2BE00214068FEF7C6BE00224068CF
:1040700081F00101FEF798BE00224068FEF7A4BE61
:10408000002240681146FEF7A7BE00224068114694
:10409000FEF792BE70B515468EB0044608A8FFF72D
:1040A0006DFD1122002103A800F0B2FF0026284672
:1040B00000F0E4FF0A4B009681B25B68284603AA31
:1040C000FEF7FEFD30B131462046FFF777FD204672
:1040D0000EB070BD204603A9FFF75EFDF7E700BFF5
:1040E000B0070020034A044B042814BF10461846AA
:1040F000704700BFB8070020B0070020024B034AFA
:104100001A6000225A607047B8070020B87F0A087A
:10411000172870B5044601D9002070BDA0F10D0329
:10412000022B0BD9012826D800F0E2F80021007CF0
:10413000FEF704FD80F00100C0B2EEE7134E3178C7
:10414000BFF35B8F11F001050FD13046FBF7B8FFCD
:1041500058B129460E48FEF7AAFE3046FBF7B5FFD8
:104160000C4A0D490A4800F0EBF8094B1878FEF7A5
:104170004FFD0028D0D1123C012C05D8FFF776FE68
:10418000007CFEF783FCD5E70120C6E71C03002076
:1041900020030020D8010020050E0A08172838B592
:1041A00004460D460AD8FF2908D0FFF7B1FF28B111
:1041B00029462046BDE83840FEF7A8BB38BD38B5D3
:1041C00004460D46FEF7AAFBFF2810D0062804D8A7
:1041D0004D2323FA00F0C30709D42046FFF798FFC8
:1041E00028B129462046BDE83840FEF79FBB38BDC0
:1041F00010B50446FEF792FB031FDBB2012B08D972
:104200002046FFF785FF20B12046BDE81040FEF7AD
:1042100095BB002010BD10B5044609289CBF0A3488
:10422000A4B22046FFF774FF50B103212046FEF7E9
:1042300065FB032804D12046BDE81040FEF78EBB85
:10424000002010BD38B504460D46FFF761FFF0B100
:1042500004212046FEF752FB042805D12046A9B2CE
:10426000BDE83840FEF772BB02212046FEF746FB50
:1042700002280CD12046FEF751FB012801D004286A
:1042800005D129462046BDE83840FEF76FBB38BD52
:10429000002313B5074C1A46194620460093FFF732
:1042A000A3FC2046044A054902B0BDE8104000F0D6
:1042B00047B800BFC4070020D8010020393B0A08D6
:1042C000002370B5202543801423084E0446038044
:1042D000314685600561284600F039F83146606056
:1042E000284600F034F8E060204670BDEC7F0A08F4
:1042F00030B50F4D87B02978BFF35B8F11F0010403
:1043000013D12846FBF7DCFE78B101A8FFF7D8FFF0
:10431000214601AA0748FFF7FDFD2846FBF7D5FE19
:10432000054A0649034800F00BF8024807B030BDC3
:10433000DC070020E0070020D8010020BD3E0A086D
:104340000B460146184600F047BEFBF7AABEFBF736
:10435000A6BE0000014900F0FBB800BF08800A08B3
:104360007FB500241023CDE90234036815469E6909
:1043700012686B4600948DF80440B0479DF80430F5
:1043800003F00603062B09BF01202046009B2B608B
:1043900004B070BD0098904214BF01200620704701
:1043A00010B50446024B036000F0CFF8204610BD64
:1043B00048800A0810B50446FFF7F2FF204608219E
:1043C000FFF7C3FF204610BD2DE9F041DDF818804E
:1043D0001F46DDE9083498450646154607D107997A
:1043E00000F0B6F818B165710020BDE8F0813946DB
:1043F000304600F0ADF80028F6D00123C4F8008064
:104400002571A371F0E738B515461C4600F0A0F8F9
:1044100020B10823E36006232560237138BD2DE910
:10442000F04105460C4616461F4600F091F848B983
:10443000032F07D82368324629462046BDE8F041BD
:104440005B691847BDE8F08110B50446024B036074
:10445000FFF7A6FF204610BDA8800A0810B5044645
:10446000FFF7F2FF20460C21FFF76FFF204610BD3B
:104470002DE9F041DDF81880064690450F461546B7
:104480001C460BD0B0682A460368CDF818801E6A17
:1044900039462346B446BDE8F0416047194600F06E
:1044A00057F80028EED00620BDE8F0812DE9F14F45
:1044B0000D46DDE90A4BDDE90CA619468146174693
:1044C000984600F045F890B1002D3460377109DB53
:1044D0002C44A2450CBF06240124B471002001B075
:1044E000BDE8F08F0235F9D10123B371F6E75445E9
:1044F00006D15946484600F02BF808B17771EDE730
:10450000D9F808003A460368CDE90CA6CDE90A4B74
:10451000DC6929464346A44601B0BDE8F04F604738
:104520002DE9F04107460C4615461E46FFF76BFF86
:1045300048B9B8682A46036821469F693346BC4695
:10454000BDE8F0416047BDE8F0817047002070474A
:10455000814208B50ED0406803782A2B0CD04968F8
:104560000B782A2B08BF013100F07EFDB0FA80F0F5
:10457000400908BD0120FCE70020FAE781F0004176
:1045800002E000BF83F0004330B54FEA41044FEA38
:10459000430594EA050F08BF90EA020F1FBF54EAD3
:1045A000000C55EA020C7FEA645C7FEA655C00F06F
:1045B000E2804FEA5454D4EB5555B8BF6D420CDD40
:1045C0002C4480EA020281EA030382EA000083EAC3
:1045D000010180EA020281EA0303362D88BF30BD63
:1045E00011F0004F4FEA01314FF4801C4CEA1131B9
:1045F00002D0404261EB410113F0004F4FEA033318
:104600004CEA133302D0524263EB430394EA050FA2
:1046100000F0A780A4F10104D5F1200E0DDB02FA11
:104620000EFC22FA05F2801841F1000103FA0EF2A5
:10463000801843FA05F359410EE0A5F120050EF16B
:10464000200E012A03FA0EFC28BF4CF0020C43FA9C
:1046500005F3C01851EBE37101F0004507D54FF0A9
:10466000000EDCF1000C7EEB00006EEB0101B1F5F9
:10467000801F1BD3B1F5001F0CD349085FEA30003F
:104680004FEA3C0C04F101044FEA445212F5800F4A
:1046900080F09A80BCF1004F08BF5FEA500C50F1E7
:1046A000000041EB045141EA050130BD5FEA4C0CCA
:1046B000404141EB0101013C28BFB1F5801FE9D227
:1046C00091F0000F04BF01460020B1FA81F308BF4A
:1046D0002033A3F10B03B3F120020CDA0C3208DD16
:1046E00002F1140CC2F10C0201FA0CF021FA02F1F1
:1046F0000CE002F11402D8BFC2F1200C01FA02F161
:1047000020FA0CFCDCBF41EA0C019040E41AA2BF85
:1047100001EB0451294330BD6FEA04041F3C1CDA4D
:104720000C340EDC04F11404C4F1200220FA04F06D
:1047300001FA02F340EA030021FA04F345EA030117
:1047400030BDC4F10C04C4F1200220FA02F001FAD9
:1047500004F340EA0300294630BD21FA04F029465B
:1047600030BD94F0000F83F4801306BF81F48011F4
:104770000134013D4EE77FEA645C18BF7FEA655C67
:1047800029D094EA050F08BF90EA020F05D054EA39
:10479000000C04BF1946104630BD91EA030F1EBF3E
:1047A0000021002030BD5FEA545C05D14000494142
:1047B00028BF41F0004130BD14F580043CBF01F535
:1047C000801130BD01F0004545F0FE4141F470011B
:1047D0004FF0000030BD7FEA645C1ABF19461046F6
:1047E0007FEA655C1CBF0B46024650EA013406BFF7
:1047F00052EA033591EA030F41F4002130BD00BFB6
:1048000090F0000F04BF0021704730B54FF4806472
:1048100004F132044FF000054FF0000150E700BFF3
:1048200090F0000F04BF0021704730B54FF4806452
:1048300004F1320410F0004548BF40424FF000013F
:104840003EE700BF42004FEAE2014FEA31014FEA82
:1048500002701FBF12F07F4393F07F4F81F06051D1
:10486000704732F07F4208BF704793F07F4F04BF1C
:1048700041F40021704730B54FF4607401F00045F9
:1048800021F000411CE700BF50EA010208BF704759
:1048900030B54FF000050AE050EA010208BF70474A
:1048A00030B511F0004502D5404261EB41014FF4B3
:1048B000806404F132045FEA915C3FF4D8AE4FF0BB
:1048C00003025FEADC0C18BF03325FEADC0C18BF9E
:1048D000033202EBDC02C2F1200300FA03FC20FAEF
:1048E00002F001FA03FE40EA0E0021FA02F114443C
:1048F000BDE600BF70B54FF0FF0C4CF4E06C1CEA55
:1049000011541DBF1CEA135594EA0C0F95EA0C0FC5
:1049100000F0DEF82C4481EA030621EA4C5123EA38
:104920004C5350EA013518BF52EA033541F4801167
:1049300043F4801338D0A0FB02CE4FF00005E1FB1A
:1049400002E506F00042E0FB03E54FF00006E1FB64
:1049500003569CF0000F18BF4EF0010EA4F1FF04A7
:10496000B6F5007F64F5407404D25FEA4E0E6D41E7
:1049700046EB060642EAC62141EA55514FEAC520F8
:1049800040EA5E504FEACE2EB4F1FD0C88BFBCF574
:10499000E06F1ED8BEF1004F08BF5FEA500E50F125
:1049A000000041EB045170BD06F0004646EA0101EB
:1049B00040EA020081EA0301B4EB5C04C2BFD4EB1D
:1049C0000C0541EA045170BD41F480114FF0000E16
:1049D000013C00F3AB8014F1360FDEBF002001F084
:1049E000004170BDC4F10004203C35DA0C341BDCFE
:1049F00004F11404C4F1200500FA05F320FA04F0D0
:104A000001FA05F240EA020001F0004221F0004103
:104A100010EBD37021FA04F642EB06015EEA430E76
:104A200008BF20EAD37070BDC4F10C04C4F12005A6
:104A300000FA04F320FA05F001FA04F240EA020059
:104A400001F0004110EBD37041F100015EEA430E2A
:104A500008BF20EAD37070BDC4F1200500FA05F24A
:104A60004EEA020E20FA04F301FA05F243EA0203C9
:104A700021FA04F001F0004121FA04F220EA0200D8
:104A800000EBD3705EEA430E08BF20EAD37070BD1E
:104A900094F0000F0FD101F00046400041EB0101FE
:104AA00011F4801F08BF013CF7D041EA060195F0E0
:104AB000000F18BF704703F00046520043EB03039A
:104AC00013F4801F08BF013DF7D043EA0603704787
:104AD00094EA0C0F0CEA135518BF95EA0C0F0CD092
:104AE00050EA410618BF52EA4306D1D181EA0301D8
:104AF00001F000414FF0000070BD50EA410606BFD2
:104B00001046194652EA430619D094EA0C0F02D116
:104B100050EA013613D195EA0C0F05D152EA03365B
:104B20001CBF104619460AD181EA030101F0004179
:104B300041F0FE4141F470014FF0000070BD41F0C2
:104B4000FE4141F4780170BD70B54FF0FF0C4CF49C
:104B5000E06C1CEA11541DBF1CEA135594EA0C0FBB
:104B600095EA0C0F00F0A7F8A4EB050481EA030E08
:104B700052EA03354FEA013100F088804FEA0333EF
:104B80004FF0805545EA131343EA12634FEA0222BD
:104B900045EA111545EA10654FEA00260EF000417E
:104BA0009D4208BF964244F1FD0404F5407402D2D0
:104BB0005B084FEA3202B61A65EB03055B084FEA61
:104BC00032024FF480104FF4002CB6EB020E75EB5E
:104BD000030E22BFB61A754640EA0C005B084FEA86
:104BE0003202B6EB020E75EB030E22BFB61A754603
:104BF00040EA5C005B084FEA3202B6EB020E75EB4E
:104C0000030E22BFB61A754640EA9C005B084FEAC5
:104C10003202B6EB020E75EB030E22BFB61A7546D2
:104C200040EADC0055EA060E18D04FEA051545EAC1
:104C300016754FEA06164FEAC30343EA52734FEA6A
:104C4000C2025FEA1C1CC0D111F4801F0BD141EAE3
:104C500000014FF000004FF0004CB6E711F4801F48
:104C600004BF01430020B4F1FD0C88BFBCF5E06F28
:104C70003FF6AFAEB5EB030C04BFB6EB020C5FEA38
:104C8000500C50F1000041EB045170BD0EF0004E8D
:104C90004EEA113114EB5C04C2BFD4EB0C0541EABF
:104CA000045170BD41F480114FF0000E013C90E6BC
:104CB00045EA060E8DE60CEA135594EA0C0F08BF80
:104CC00095EA0C0F3FF43BAF94EA0C0F0AD150EA7F
:104CD00001347FF434AF95EA0C0F7FF425AF104612
:104CE00019462CE795EA0C0F06D152EA03353FF43A
:104CF000FDAE1046194622E750EA410618BF52EAB7
:104D000043067FF4C5AE50EA41047FF40DAF52EA8A
:104D100043057FF4EBAE12E74FF0FF3C06E000BF27
:104D20004FF0010C02E000BF4FF0010C4DF804CD34
:104D30004FEA410C7FEA6C5C4FEA430C18BF7FEAF4
:104D40006C5C1BD001B050EA410C0CBF52EA430C22
:104D500091EA030F02BF90EA020F0020704710F1A2
:104D6000000F91EA030F58BF994208BF90422CBF31
:104D7000D8176FEAE37040F0010070474FEA410C2A
:104D80007FEA6C5C02D150EA013C07D14FEA430C48
:104D90007FEA6C5CD6D152EA033CD3D05DF8040BB9
:104DA000704700BF8446104662468C4619466346EB
:104DB00000E000BF01B5FFF7B7FF002848BF10F1C2
:104DC000000F01BD4DF808EDFFF7F4FF0CBF012007
:104DD00000205DF808FB00BF4DF808EDFFF7EAFF83
:104DE00034BF012000205DF808FB00BF4DF808ED3E
:104DF000FFF7E0FF94BF012000205DF808FB00BF33
:104E00004DF808EDFFF7CEFF94BF012000205DF8BC
:104E100008FB00BF4DF808EDFFF7C4FF34BF0120C9
:104E200000205DF808FB00BF4FEA410C7FEA6C5C94
:104E300002D150EA013C0AD14FEA430C7FEA6C5C94
:104E400002D152EA033C02D14FF0000070474FF00C
:104E5000010070474FEA410212F5001215D211D538
:104E60006FF47873B3EB625212D94FEAC12343F067
:104E7000004343EA505311F0004F23FA02F018BFE9
:104E8000404270474FF00000704750EA013005D1B2
:104E900011F0004008BF6FF0004070474FF0000075
:104EA000704700BF4A0011D212F5001211D20DD581
:104EB0006FF47873B3EB62520ED44FEAC12343F020
:104EC000004343EA505323FA02F070474FF00000CA
:104ED000704750EA013002D14FF0FF3070474FF079
:104EE000000070474FEA4102B2F1E04324BFB3F53E
:104EF000001CDCF1FE5C0DD901F0004C4FEAC00251
:104F00004CEA5070B2F1004F40EB830008BF20F034
:104F10000100704711F0804F21D113F13872BCBFEE
:104F200001F00040704741F480114FEA5252C2F143
:104F30001802C2F1200C10FA0CF320FA02F018BF8C
:104F400040F001004FEAC1234FEAD32303FA0CFCDF
:104F500040EA0C0023FA02F34FEA4303CCE77FEA6E
:104F6000625307D150EA01331EBF4FF0FE4040F4B8
:104F70004000704701F0004040F0FE4040F4000067
:104F8000704700BFD0B500220B4B06460F46FFF717
:104F9000B1FCFFF787FF0446FFF732FC0022074B06
:104FA000FFF7A8FC02460B4630463946FFF7EAFAFF
:104FB000FFF778FF2146D0BD0000F03D0000F04132
:104FC000002100F09DBE0A22002100F01FBF0A222E
:104FD000002100F01BBF000010B504460448134632
:104FE00020B10A4602202146AFF3008010BD00BF69
:104FF000000000000A44914200F1FF3300D17047E5
:1050000010B511F8014B914203F8014FF9D110BDD1
:1050100003460244934200D1704703F8011BF9E7AD
:1050200038B50D4B04461D68AB6B7BB91820FDF7F6
:1050300003FF0A4A0A4BA863C0E90023094B012277
:1050400083600B2383810023C0E904230022AB6B20
:105050001C615A6138BD00BF040000200E33CDAB87
:1050600034126DE6ECDE050010F8012B11F8013B5F
:10507000012A28BF9A42F7D0D01A7047034613F886
:10508000012B002AFBD1181A0138704710B56AB1FC
:105090000139841810F8013B11F8012F934203D114
:1050A000A04201D0002BF5D1981A10BD1046FCE7A4
:1050B000034610B5013932B111F8014F013A03F836
:1050C000014B002CF7D100211A44934200D110BDAE
:1050D00003F8011BF9E72DE9F0410F46904601F076
:1050E00003FD04460D46B8F1000F11D0C7F30A5373
:1050F000C3F16B03002B0BDD00241B0503F17F556F
:1051000005F5401522462B46FFF7F4FB04460D46F5
:1051100020462946BDE8F0812DE9F04F9B4600234B
:10512000A1B01C93A14B82461F680E4638461792C9
:10513000FFF7A4FF4FF0000804464FF000091B964C
:105140001B9B1A782B2A4CD03AD80D2A33D8082A20
:1051500033D8002A3DD000230C931B9D2B78302B95
:1051600040F0AF806B7803F0DF03582B6CD10C9BC1
:10517000504601931CAB00938D4ACDF808B01DAB8F
:105180001BA900F0B5FE10F00706044605D0062E58
:1051900029D1002301351B950C93179B002B40F060
:1051A00096850C9BD3B1424609F10043104619463F
:1051B00021B0BDE8F08F202ACDD101331B93BFE78A
:1051C0002D2AC8D101220C925A1C1B925B78002B0D
:1051D000C3D1179B1B96002B40F0778542464B4668
:1051E000E4E70022EFE71C9A3AB135211EA801F04E
:1051F00072FD50461C9901F0ADF9013E052E07D80D
:10520000DFE806F00E0B181D0E034FF00009C8462C
:105210002107C2D549F00049BFE7DDE91E89F7E75C
:105220001D9ADDE91E8302F2334223F4801343EA20
:105230000259EDE74FF00008DFF87891E8E76FF0EA
:1052400000494FF0FF38E3E71B9B5A1C1B925B7829
:10525000302BF9D0002BA0D0012307931B9B0A22EF
:10526000089300239B46CDE905331B980578A5F1EB
:105270003003D9B2092926D922463946FFF706FF5D
:10528000002832D000202B465C4602460490652B55
:1052900001D0452B13D11CB9079B034399D000249F
:1052A0001B9E731C1B9373782B2B78D02D2B7BD0DC
:1052B0000027A3F13001092940F282801B960025C6
:1052C0009EE00023C9E7BBF1080FD5BF06990599F9
:1052D00002FB013302FB013300F10100D4BF06934E
:1052E00005930BF1010B1B90BFE71B9B1A191B9237
:1052F0001B5DBBF1000F36D05C460490A3F1300279
:10530000092A12D90122C2E71B9B01305A1C1B92A9
:105310005B78302BF8D0A3F13102082A00F2DC844C
:105320000490002004461B9A0892303B00F10102D1
:1053300013D0049905191144049122460A21AA4266
:1053400013D12218082A04F1010404441BDC0A22A8
:10535000069902FB0133069300221B9B1046591C41
:105360001B915B78CAE75846D3E7082A04DC069FFE
:105370004F4306970132E2E7571C102FDEBF059F0F
:105380004F430597F6E7102CDFBF0A22059902FB71
:1053900001330593E0E70023012204937CE7002713
:1053A000B31C1B93B37884E70127F9E73C820A0812
:1053B000E8800A080000F07F1B9B591C1B915B785A
:1053C000302BF9D0A3F1310108293FF678AF4FF027
:1053D0000A0EA3F1300C1B9B09931B9B591C1B91BC
:1053E0005B78A3F13005092D35D9099D491B0829A2
:1053F00044F61F6502DC6545A8BF654607B16D42EE
:10540000002C4CD1079901437FF4C7AE002A7FF4EA
:10541000E0AE692B26D023DC492B23D04E2B7FF422
:10542000D8AE9C491BA800F09FFF00283FF4D1AEE6
:105430001B9B1B78282B2CD197491EAA1BA800F078
:10544000A7FF052825D11F9BDDF8788043F0FF4991
:1054500049F4E009A1E60EFB0C3CACF1300CBCE7D2
:105460006E2BDCE78D491BA800F07EFF00283FF47F
:10547000B0AE1B9B8A49013B1BA81B9300F074FF35
:1054800010B91B9B01331B934FF00008DFF82092EB
:1054900083E6844801F072FC804689467DE6049BE1
:1054A000BBF1000F08BFA346EB1A102C0698264646
:1054B0000793A8BF1026FFF7A3F9092C8046894659
:1054C00013DD794B03EBC60353E91223FFF712FAFE
:1054D000804605988946FFF793F902460B464046F9
:1054E0004946FFF751F8804689460F2C36DC079B6A
:1054F000002B3FF452AE22DD162B09DC6A4C4246EB
:1055000004EBC3044B46D4E90001FFF7F3F9C3E70A
:10551000079AC4F12503934220DB634DC4F10F04C5
:1055200005EBC4014246D1E900014B46FFF7E2F921
:10553000079B1C1B05EBC405D5E90023E5E7079B8A
:1055400016330BDB049B584A5D1B02EBC505404636
:10555000D5E900234946FFF7F7FA9DE7079BA61B0D
:105560001E44002E71DD16F00F030AD04E4942464C
:1055700001EBC301D1E900014B46FFF7BBF98046BF
:10558000894636F00F0650D0B6F59A7F27DD4FF0EA
:10559000000BCDF810B0CDF820B0CDF818B0222314
:1055A0004FF00008DFF80891CAF80030089B002B84
:1055B0003FF4F3AD50461C9900F0CCFF50460699DD
:1055C00000F0C8FF5046049900F0C4FF5046089907
:1055D00000F0C0FF5946504600F0BCFFDDE5002357
:1055E000404649461F463611012E21DC0BB180464C
:1055F00089462E4BA9F1547903EBC7074246D7E9F8
:1056000000014B46FFF776F9294B0A460B40294922
:1056100080468B42BBD8A1F580118B4286BF4FF0EC
:10562000FF38DFF8949002F15479002305937EE06F
:10563000F20707D51D4B03EBC703D3E90023FFF7A0
:1056400059F9012301377610CEE7EED0764216F0F5
:105650000F020AD0144B404603EBC2034946D3E97C
:105660000023FFF771FA804689463611DDD01F2EE0
:1056700024DD4FF0000BCDF810B0CDF820B0CDF800
:1056800018B022234FF000084FF00009CAF800308C
:105690008CE700BFA97E0A08FC800A08AD7E0A08D4
:1056A000E1800A08536E0A0878820A0850820A08C4
:1056B0000000F07F0000A07CFFFFEF7F16F01003DA
:1056C00018BF6A234046059349460023B24FF207AC
:1056D00004D5D7E90023FFF70DF90123761007F170
:1056E0000807F4D10BB180468946059BBBB1C9F3CD
:1056F0000A53C3F16B03002B494610DD1F2B40F307
:105700002B81342BD8BF4FF0FF324FF00008CFBFB2
:105710004FF05C79203B02FA03F303EA010900220F
:10572000002340464946FFF74DFB0028A1D1069BC8
:105730005A46009350462346089900F060FF0890AF
:1057400000283FF424AF049B4FF0000B5D1B079B28
:10575000CDF810B0002BB4BF2B4600230E93079B4F
:1057600023EAE3731693089B5046596800F0BEFE87
:10577000069000283FF413AF089B0C301A6903F120
:105780000C0102329200FFF735FC1EAB01931DABFA
:10579000009342464B465046CDE90A8901F01EFA75
:1057A0001C9000283FF4FBAE0121504600F0B3FFEF
:1057B0000346049000283FF4F2AE1D9D1E9A002D72
:1057C000ABBF0E9B169BEE185C1B059BA8BF169CDF
:1057D000A5EB03051544714B05F1FF35B8BF0E9ECF
:1057E0009D42C2F1360280F2C9805B1B1F2B4FF035
:1057F0000107A2EB030200F3B680002507FA03F3CA
:105800000F93B718059BBE4214441C443346A8BFEF
:105810003B46A342A8BF2346002BC2BFFF1AE41A8F
:10582000F61A0E9B002B17DD1A465046049901F01C
:1058300017F8049000283FF4B2AE01461C9A504677
:1058400000F072FF099000283FF4A9AE50461C9961
:1058500000F080FE099B1C93002F00F39380079BB0
:10586000002B08DD5046169A069900F0F9FF0690C5
:1058700000283FF494AE002C08DD224650460699DD
:1058800001F03CF8069000283FF489AE002E08DDB8
:1058900032465046049901F031F8049000283FF454
:1058A0007EAE5046069A1C9901F0A2F88346002865
:1058B0003FF475AE0024C3680499C4600D9301F0F1
:1058C0007CF8A04270DA0D9B53EA080340F0968002
:1058D000C9F31303002B40F0918029F000431B0D06
:1058E0001B05B3F1D66F40F28980DBF8143023B981
:1058F000DBF81030012B40F38180594601225046DD
:1059000000F0FCFF0499834601F057F8002875DD8C
:1059100005994B46224A002900F0918002EA0901CC
:10592000B1F1D66F00F38B80B1F15C7F7FF7A9AE48
:1059300000231C4A4046CDE914324946DDE91423D0
:10594000FEF7D8FF0B46034308BF22238046894653
:1059500008BFCAF800302DE64FF0FF3202FA03F319
:1059600003EA0808DBE6C5F17F4505F57F0505F587
:105970007B45E23507FA05F50F9742E7012300253D
:105980000F933EE73A4650461C9900F0B7FF1C9033
:1059900000287FF464AF02E610810A0802FCFFFFD2
:1059A0000000F07F00005039CDF8249066D10D9AA8
:1059B000C9F313035AB39C4A93422CD1059B40462A
:1059C00003B34B46994A4FF0FF311A40B2F1D46FFE
:1059D0001BD8120DC2F16B0301FA03F398421AD1DE
:1059E000934B099A9A4202D101303FF4D8AD4FF05F
:1059F00000088E4B099A1A4002F58019059B002B6E
:105A000096D1D7E54FF0FF33E8E70B46E6E753EAD8
:105A100008033FF47DAFE5B1099B1D42EED00D9B1D
:105A200040464946059AC3B1FFF755FB02460B466F
:105A3000DDE90A01FEF7A8FD80468946DEE713404E
:105A4000A3F580136FEA13594FF0FF386FEA095935
:105A5000D4E70F9B13EA080FE0E7FFF73CFB024691
:105A60000B46DDE90A01FEF78DFD0022002380468A
:105A70008946FFF7A7F90028C0D002E658460499E6
:105A800001F0FBF800224FF0804306460F46FFF777
:105A9000ADF9002875D00D9B002B47D00026654F2F
:105AA000644D099B23F000431B0D1B050F930F9AB8
:105AB000614B9A4240F0C880DDE90A23CDE9142306
:105AC000099B4046A3F15479494601F00DF802467E
:105AD0000B4630463946FEF70DFF42464B46FEF771
